{
    "_format": "hh-sol-artifact-1",
    "contractName": "Flipper",
    "sourceName": "contracts/Flipper.sol",
    "address": "0xdbda9E7EC470eF67f00e3daCBCdB56ce9F4C3783",
    "abi": [
        {
            "inputs": [],
            "stateMutability": "nonpayable",
            "type": "constructor"
        },
        {
            "inputs": [],
            "name": "getValue",
            "outputs": [
                {
                    "internalType": "bool",
                    "name": "",
                    "type": "bool"
                }
            ],
            "stateMutability": "view",
            "type": "function"
        },
        {
            "inputs": [],
            "name": "owner",
            "outputs": [
                {
                    "internalType": "address",
                    "name": "",
                    "type": "address"
                }
            ],
            "stateMutability": "view",
            "type": "function"
        },
        {
            "inputs": [],
            "name": "toggleValue",
            "outputs": [],
            "stateMutability": "nonpayable",
            "type": "function"
        },
        {
            "inputs": [],
            "name": "val",
            "outputs": [
                {
                    "internalType": "bool",
                    "name": "",
                    "type": "bool"
                }
            ],
            "stateMutability": "view",
            "type": "function"
        }
    ],
    "bytecode": "0x60806040526001600060146101000a81548160ff02191690831515021790555034801561002b57600080fd5b50336000806101000a81548173ffffffffffffffffffffffffffffffffffffffff021916908373ffffffffffffffffffffffffffffffffffffffff1602179055506102e38061007b6000396000f3fe608060405234801561001057600080fd5b506004361061004c5760003560e01c80631f6f59be14610051578063209652551461005b5780633c6bb4361461007b5780638da5cb5b1461009b575b600080fd5b6100596100cf565b005b610063610139565b60405180821515815260200191505060405180910390f35b61008361014f565b60405180821515815260200191505060405180910390f35b6100a3610162565b604051808273ffffffffffffffffffffffffffffffffffffffff16815260200191505060405180910390f35b600060149054906101000a900460ff1615600060146101000a81548160ff0219169083151502179055506101376040518060400160405280600d81526020017f666c69707065642076616c756500000000000000000000000000000000000000815250610186565b565b60008060149054906101000a900460ff16905090565b600060149054906101000a900460ff1681565b60008054906101000a900473ffffffffffffffffffffffffffffffffffffffff1681565b610281816040516024018080602001828103825283818151815260200191508051906020019080838360005b838110156101cd5780820151818401526020810190506101b2565b50505050905090810190601f1680156101fa5780820380516001836020036101000a031916815260200191505b50925050506040516020818303038152906040527f41304fac000000000000000000000000000000000000000000000000000000007bffffffffffffffffffffffffffffffffffffffffffffffffffffffff19166020820180517bffffffffffffffffffffffffffffffffffffffffffffffffffffffff8381831617835250505050610284565b50565b60008151905060006a636f6e736f6c652e6c6f679050602083016000808483855afa505050505056fea2646970667358221220b89482126e5f84fa263a998abe8f485fd25558d2407ed9af17ddd83cbd62f25e64736f6c63430007030033",
    "linkReferences": {},
    "deployedLinkReferences": {}
}